{
  "contractName": "Accident",
  "abi": [
    {
      "constant": true,
      "inputs": [],
      "name": "count",
      "outputs": [
        {
          "name": "",
          "type": "uint256"
        }
      ],
      "payable": false,
      "stateMutability": "view",
      "type": "function"
    },
    {
      "constant": true,
      "inputs": [
        {
          "name": "",
          "type": "uint256"
        }
      ],
      "name": "arrFahrersdaten",
      "outputs": [
        {
          "name": "fahrerid",
          "type": "uint256"
        },
        {
          "name": "fahrerName",
          "type": "string"
        },
        {
          "name": "fahrerAdr",
          "type": "string"
        },
        {
          "name": "fuehrerscheinnr",
          "type": "uint256"
        },
        {
          "name": "klasse",
          "type": "string"
        },
        {
          "name": "ausgestellt",
          "type": "string"
        },
        {
          "name": "gueltigAbBis",
          "type": "string"
        }
      ],
      "payable": false,
      "stateMutability": "view",
      "type": "function"
    },
    {
      "constant": true,
      "inputs": [
        {
          "name": "",
          "type": "uint256"
        }
      ],
      "name": "arrVerDaten",
      "outputs": [
        {
          "name": "versicherungsid",
          "type": "uint256"
        },
        {
          "name": "versName",
          "type": "string"
        },
        {
          "name": "versAdr",
          "type": "string"
        },
        {
          "name": "versTel",
          "type": "uint256"
        },
        {
          "name": "vorsteuerabzug",
          "type": "bool"
        }
      ],
      "payable": false,
      "stateMutability": "view",
      "type": "function"
    },
    {
      "constant": true,
      "inputs": [
        {
          "name": "",
          "type": "uint256"
        }
      ],
      "name": "arrFahrzeugsdaten",
      "outputs": [
        {
          "name": "fahrzeugid",
          "type": "uint256"
        },
        {
          "name": "markeType",
          "type": "string"
        },
        {
          "name": "kennzeichen",
          "type": "string"
        }
      ],
      "payable": false,
      "stateMutability": "view",
      "type": "function"
    },
    {
      "constant": false,
      "inputs": [
        {
          "name": "_datumUhrzeit",
          "type": "string"
        },
        {
          "name": "_ort",
          "type": "string"
        },
        {
          "name": "_verletzte",
          "type": "bool"
        },
        {
          "name": "_andereSachschaeden",
          "type": "bool"
        },
        {
          "name": "_zeugen",
          "type": "string"
        }
      ],
      "name": "setUnfalldaten",
      "outputs": [],
      "payable": false,
      "stateMutability": "nonpayable",
      "type": "function"
    },
    {
      "constant": false,
      "inputs": [
        {
          "name": "_nameVname",
          "type": "string"
        },
        {
          "name": "_adr",
          "type": "string"
        },
        {
          "name": "_tel",
          "type": "uint256"
        },
        {
          "name": "_vorsteuerabzug",
          "type": "bool"
        }
      ],
      "name": "addVersicherungsnehmerDaten",
      "outputs": [],
      "payable": false,
      "stateMutability": "nonpayable",
      "type": "function"
    },
    {
      "constant": false,
      "inputs": [
        {
          "name": "_markeTyp",
          "type": "string"
        },
        {
          "name": "_kennzeichen",
          "type": "string"
        }
      ],
      "name": "addFahrzeugDaten",
      "outputs": [],
      "payable": false,
      "stateMutability": "nonpayable",
      "type": "function"
    },
    {
      "constant": false,
      "inputs": [
        {
          "name": "_nameVname",
          "type": "string"
        },
        {
          "name": "_adr",
          "type": "string"
        },
        {
          "name": "_fuehrerscheinnr",
          "type": "uint256"
        },
        {
          "name": "_klasse",
          "type": "string"
        },
        {
          "name": "_ausgestellt",
          "type": "string"
        },
        {
          "name": "_gueltigAbBis",
          "type": "string"
        }
      ],
      "name": "addFahrersdaten",
      "outputs": [],
      "payable": false,
      "stateMutability": "nonpayable",
      "type": "function"
    },
    {
      "constant": false,
      "inputs": [
        {
          "name": "_sichtbareSchaeden",
          "type": "string"
        },
        {
          "name": "_bemerkungen",
          "type": "string"
        }
      ],
      "name": "addSchaden",
      "outputs": [],
      "payable": false,
      "stateMutability": "nonpayable",
      "type": "function"
    }
  ],
  "bytecode": "0x60806040526000805534801561001457600080fd5b506119a4806100246000396000f3fe608060405260043610610099576000357c0100000000000000000000000000000000000000000000000000000000900463ffffffff16806306661abd1461009e5780632b820588146100c95780637d6540571461033b5780638d93c0c61461049a578063ae79ab36146107c8578063d4e991c514610901578063e4d3e2a814610a28578063e905e51414610c36578063f839399214610d95575b600080fd5b3480156100aa57600080fd5b506100b3610f0a565b6040518082815260200191505060405180910390f35b3480156100d557600080fd5b50610102600480360360208110156100ec57600080fd5b8101908080359060200190929190505050610f10565b60405180888152602001806020018060200187815260200180602001806020018060200186810386528c818151815260200191508051906020019080838360005b8381101561015e578082015181840152602081019050610143565b50505050905090810190601f16801561018b5780820380516001836020036101000a031916815260200191505b5086810385528b818151815260200191508051906020019080838360005b838110156101c45780820151818401526020810190506101a9565b50505050905090810190601f1680156101f15780820380516001836020036101000a031916815260200191505b50868103845289818151815260200191508051906020019080838360005b8381101561022a57808201518184015260208101905061020f565b50505050905090810190601f1680156102575780820380516001836020036101000a031916815260200191505b50868103835288818151815260200191508051906020019080838360005b83811015610290578082015181840152602081019050610275565b50505050905090810190601f1680156102bd5780820380516001836020036101000a031916815260200191505b50868103825287818151815260200191508051906020019080838360005b838110156102f65780820151818401526020810190506102db565b50505050905090810190601f1680156103235780820380516001836020036101000a031916815260200191505b509c5050505050505050505050505060405180910390f35b34801561034757600080fd5b506104986004803603604081101561035e57600080fd5b810190808035906020019064010000000081111561037b57600080fd5b82018360208201111561038d57600080fd5b803590602001918460018302840111640100000000831117156103af57600080fd5b91908080601f016020809104026020016040519081016040528093929190818152602001838380828437600081840152601f19601f8201169050808301925050505050505091929192908035906020019064010000000081111561041257600080fd5b82018360208201111561042457600080fd5b8035906020019184600183028401116401000000008311171561044657600080fd5b91908080601f016020809104026020016040519081016040528093929190818152602001838380828437600081840152601f19601f82011690508083019250505050505050919291929050505061124a565b005b3480156104a657600080fd5b506107c6600480360360c08110156104bd57600080fd5b81019080803590602001906401000000008111156104da57600080fd5b8201836020820111156104ec57600080fd5b8035906020019184600183028401116401000000008311171561050e57600080fd5b91908080601f016020809104026020016040519081016040528093929190818152602001838380828437600081840152601f19601f8201169050808301925050505050505091929192908035906020019064010000000081111561057157600080fd5b82018360208201111561058357600080fd5b803590602001918460018302840111640100000000831117156105a557600080fd5b91908080601f016020809104026020016040519081016040528093929190818152602001838380828437600081840152601f19601f820116905080830192505050505050509192919290803590602001909291908035906020019064010000000081111561061257600080fd5b82018360208201111561062457600080fd5b8035906020019184600183028401116401000000008311171561064657600080fd5b91908080601f016020809104026020016040519081016040528093929190818152602001838380828437600081840152601f19601f820116905080830192505050505050509192919290803590602001906401000000008111156106a957600080fd5b8201836020820111156106bb57600080fd5b803590602001918460018302840111640100000000831117156106dd57600080fd5b91908080601f016020809104026020016040519081016040528093929190818152602001838380828437600081840152601f19601f8201169050808301925050505050505091929192908035906020019064010000000081111561074057600080fd5b82018360208201111561075257600080fd5b8035906020019184600183028401116401000000008311171561077457600080fd5b91908080601f016020809104026020016040519081016040528093929190818152602001838380828437600081840152601f19601f8201169050808301925050505050505091929192905050506112c7565b005b3480156107d457600080fd5b50610801600480360360208110156107eb57600080fd5b81019080803590602001909291905050506113c1565b60405180868152602001806020018060200185815260200184151515158152602001838103835287818151815260200191508051906020019080838360005b8381101561085b578082015181840152602081019050610840565b50505050905090810190601f1680156108885780820380516001836020036101000a031916815260200191505b50838103825286818151815260200191508051906020019080838360005b838110156108c15780820151818401526020810190506108a6565b50505050905090810190601f1680156108ee5780820380516001836020036101000a031916815260200191505b5097505050505050505060405180910390f35b34801561090d57600080fd5b5061093a6004803603602081101561092457600080fd5b8101908080359060200190929190505050611534565b604051808481526020018060200180602001838103835285818151815260200191508051906020019080838360005b83811015610984578082015181840152602081019050610969565b50505050905090810190601f1680156109b15780820380516001836020036101000a031916815260200191505b50838103825284818151815260200191508051906020019080838360005b838110156109ea5780820151818401526020810190506109cf565b50505050905090810190601f168015610a175780820380516001836020036101000a031916815260200191505b509550505050505060405180910390f35b348015610a3457600080fd5b50610c34600480360360a0811015610a4b57600080fd5b8101908080359060200190640100000000811115610a6857600080fd5b820183602082011115610a7a57600080fd5b80359060200191846001830284011164010000000083111715610a9c57600080fd5b91908080601f016020809104026020016040519081016040528093929190818152602001838380828437600081840152601f19601f82011690508083019250505050505050919291929080359060200190640100000000811115610aff57600080fd5b820183602082011115610b1157600080fd5b80359060200191846001830284011164010000000083111715610b3357600080fd5b91908080601f016020809104026020016040519081016040528093929190818152602001838380828437600081840152601f19601f82011690508083019250505050505050919291929080351515906020019092919080351515906020019092919080359060200190640100000000811115610bae57600080fd5b820183602082011115610bc057600080fd5b80359060200191846001830284011164010000000083111715610be257600080fd5b91908080601f016020809104026020016040519081016040528093929190818152602001838380828437600081840152601f19601f82011690508083019250505050505050919291929050505061168e565b005b348015610c4257600080fd5b50610d9360048036036040811015610c5957600080fd5b8101908080359060200190640100000000811115610c7657600080fd5b820183602082011115610c8857600080fd5b80359060200191846001830284011164010000000083111715610caa57600080fd5b91908080601f016020809104026020016040519081016040528093929190818152602001838380828437600081840152601f19601f82011690508083019250505050505050919291929080359060200190640100000000811115610d0d57600080fd5b820183602082011115610d1f57600080fd5b80359060200191846001830284011164010000000083111715610d4157600080fd5b91908080601f016020809104026020016040519081016040528093929190818152602001838380828437600081840152601f19601f82011690508083019250505050505050919291929050505061170e565b005b348015610da157600080fd5b50610f0860048036036080811015610db857600080fd5b8101908080359060200190640100000000811115610dd557600080fd5b820183602082011115610de757600080fd5b80359060200191846001830284011164010000000083111715610e0957600080fd5b91908080601f016020809104026020016040519081016040528093929190818152602001838380828437600081840152601f19601f82011690508083019250505050505050919291929080359060200190640100000000811115610e6c57600080fd5b820183602082011115610e7e57600080fd5b80359060200191846001830284011164010000000083111715610ea057600080fd5b91908080601f016020809104026020016040519081016040528093929190818152602001838380828437600081840152601f19601f8201169050808301925050505050505091929192908035906020019092919080351515906020019092919050505061178b565b005b60005481565b6007602052806000526040600020600091509050806000015490806001018054600181600116156101000203166002900480601f016020809104026020016040519081016040528092919081815260200182805460018160011615610100020316600290048015610fc25780601f10610f9757610100808354040283529160200191610fc2565b820191906000526020600020905b815481529060010190602001808311610fa557829003601f168201915b505050505090806002018054600181600116156101000203166002900480601f0160208091040260200160405190810160405280929190818152602001828054600181600116156101000203166002900480156110605780601f1061103557610100808354040283529160200191611060565b820191906000526020600020905b81548152906001019060200180831161104357829003601f168201915b505050505090806003015490806004018054600181600116156101000203166002900480601f0160208091040260200160405190810160405280929190818152602001828054600181600116156101000203166002900480156111045780601f106110d957610100808354040283529160200191611104565b820191906000526020600020905b8154815290600101906020018083116110e757829003601f168201915b505050505090806005018054600181600116156101000203166002900480601f0160208091040260200160405190810160405280929190818152602001828054600181600116156101000203166002900480156111a25780601f10611177576101008083540402835291602001916111a2565b820191906000526020600020905b81548152906001019060200180831161118557829003601f168201915b505050505090806006018054600181600116156101000203166002900480601f0160208091040260200160405190810160405280929190818152602001828054600181600116156101000203166002900480156112405780601f1061121557610100808354040283529160200191611240565b820191906000526020600020905b81548152906001019060200180831161122357829003601f168201915b5050505050905087565b60606040519081016040528060005481526020018381526020018281525060086000805481526020019081526020016000206000820151816000015560208201518160010190805190602001906112a2929190611853565b5060408201518160020190805190602001906112bf929190611853565b509050505050565b60e0604051908101604052806000548152602001878152602001868152602001858152602001848152602001838152602001828152506007600080548152602001908152602001600020600082015181600001556020820151816001019080519060200190611337929190611853565b506040820151816002019080519060200190611354929190611853565b5060608201518160030155608082015181600401908051906020019061137b929190611853565b5060a0820151816005019080519060200190611398929190611853565b5060c08201518160060190805190602001906113b5929190611853565b50905050505050505050565b6005602052806000526040600020600091509050806000015490806001018054600181600116156101000203166002900480601f0160208091040260200160405190810160405280929190818152602001828054600181600116156101000203166002900480156114735780601f1061144857610100808354040283529160200191611473565b820191906000526020600020905b81548152906001019060200180831161145657829003601f168201915b505050505090806002018054600181600116156101000203166002900480601f0160208091040260200160405190810160405280929190818152602001828054600181600116156101000203166002900480156115115780601f106114e657610100808354040283529160200191611511565b820191906000526020600020905b8154815290600101906020018083116114f457829003601f168201915b5050505050908060030154908060040160009054906101000a900460ff16905085565b6006602052806000526040600020600091509050806000015490806001018054600181600116156101000203166002900480601f0160208091040260200160405190810160405280929190818152602001828054600181600116156101000203166002900480156115e65780601f106115bb576101008083540402835291602001916115e6565b820191906000526020600020905b8154815290600101906020018083116115c957829003601f168201915b505050505090806002018054600181600116156101000203166002900480601f0160208091040260200160405190810160405280929190818152602001828054600181600116156101000203166002900480156116845780601f1061165957610100808354040283529160200191611684565b820191906000526020600020905b81548152906001019060200180831161166757829003601f168201915b5050505050905083565b84600190805190602001906116a49291906118d3565b5083600290805190602001906116bb9291906118d3565b5082600360006101000a81548160ff02191690831515021790555081600360016101000a81548160ff02191690831515021790555080600490805190602001906117069291906118d3565b505050505050565b6060604051908101604052806000548152602001838152602001828152506006600080548152602001908152602001600020600082015181600001556020820151816001019080519060200190611766929190611853565b506040820151816002019080519060200190611783929190611853565b509050505050565b600080815480929190600101919050555060a06040519081016040528060005481526020018581526020018481526020018381526020018215158152506005600080548152602001908152602001600020600082015181600001556020820151816001019080519060200190611802929190611853565b50604082015181600201908051906020019061181f929190611853565b506060820151816003015560808201518160040160006101000a81548160ff02191690831515021790555090505050505050565b828054600181600116156101000203166002900490600052602060002090601f016020900481019282601f1061189457805160ff19168380011785556118c2565b828001600101855582156118c2579182015b828111156118c15782518255916020019190600101906118a6565b5b5090506118cf9190611953565b5090565b828054600181600116156101000203166002900490600052602060002090601f016020900481019282601f1061191457805160ff1916838001178555611942565b82800160010185558215611942579182015b82811115611941578251825591602001919060010190611926565b5b50905061194f9190611953565b5090565b61197591905b80821115611971576000816000905550600101611959565b5090565b9056fea165627a7a72305820d8153298ea125e46bdb50da003cb6e8810c6350606b03ab44c8ff07d889d62650029",
  "source": "pragma solidity ^0.5.0;\n\ncontract Accident {\n  uint public count=0;\n  string datumUhrzeit;\n  string ort;\n  bool verletzte;\n  bool andereSachschaeden;\n  string zeugen;\n\n  function setUnfalldaten (string memory _datumUhrzeit, string memory _ort, bool _verletzte, bool _andereSachschaeden, string memory _zeugen) public{\n    datumUhrzeit=_datumUhrzeit;\n    ort=_ort;\n    verletzte=_verletzte;\n    andereSachschaeden=_andereSachschaeden;\n    zeugen=_zeugen;\n  }\n\n  struct versicherungsnehmerDaten{\n    uint versicherungsid;\n    string versName;\n    string versAdr;\n    uint versTel;\n    bool vorsteuerabzug;\n  }\n  mapping(uint => versicherungsnehmerDaten) public arrVerDaten;\n\n  function addVersicherungsnehmerDaten(string memory _nameVname, string memory _adr, uint _tel,bool _vorsteuerabzug) public {\n    count++;\n    arrVerDaten[count] = versicherungsnehmerDaten(count,_nameVname,_adr,_tel,_vorsteuerabzug);\n  }\n  struct fahrzeugsdaten{\n    uint fahrzeugid;\n    string markeType;\n    string kennzeichen;\n  }\n  mapping (uint => fahrzeugsdaten) public arrFahrzeugsdaten;\n  function addFahrzeugDaten(string memory _markeTyp, string memory _kennzeichen) public{\n    arrFahrzeugsdaten[count] = fahrzeugsdaten(count, _markeTyp, _kennzeichen);\n  }\n  struct fahrersdaten{\n    uint fahrerid;\n    string fahrerName;\n    string fahrerAdr;\n    uint fuehrerscheinnr;\n    string klasse;\n    string ausgestellt;\n    string gueltigAbBis;\n  }\n  mapping (uint => fahrersdaten) public arrFahrersdaten;\n  function addFahrersdaten(string memory _nameVname, string memory _adr, uint _fuehrerscheinnr,\n    string memory _klasse, string memory _ausgestellt, string memory _gueltigAbBis) public {\n      arrFahrersdaten[count]= fahrersdaten(count, _nameVname, _adr, _fuehrerscheinnr, _klasse, _ausgestellt, _gueltigAbBis);\n  }\n\n  struct schaden{\n    uint id;\n    string sichtbareSchaeden;\n    string bemerkungen;\n  }\n  mapping (uint => schaden) arrSchaden;\n  function addSchaden(string memory _sichtbareSchaeden, string memory _bemerkungen) public{\n    arrSchaden[count]=schaden(count, _sichtbareSchaeden, _bemerkungen);\n  }\n\n}\n",
  "sourcePath": "/Users/honey/Documents/GitHub/BlockchainAccident/accident-prog/contracts/Accident.sol",
  "compiler": {
    "name": "solc",
    "version": "0.5.0+commit.1d4f565a.Emscripten.clang"
  },
  "schemaVersion": "3.0.1",
  "updatedAt": "2020-12-24T15:44:00.061Z",
  "devdoc": {
    "methods": {}
  },
  "userdoc": {
    "methods": {}
  }
}