{
  "contractName": "Accident",
  "abi": [
    {
      "constant": false,
      "inputs": [
        {
          "internalType": "string[]",
          "name": "hash",
          "type": "string[]"
        }
      ],
      "name": "set",
      "outputs": [],
      "payable": false,
      "stateMutability": "nonpayable",
      "type": "function"
    },
    {
      "constant": true,
      "inputs": [],
      "name": "get",
      "outputs": [
        {
          "internalType": "string[]",
          "name": "",
          "type": "string[]"
        }
      ],
      "payable": false,
      "stateMutability": "view",
      "type": "function"
    }
  ],
  "bytecode": "0x608060405234801561001057600080fd5b5061064a806100206000396000f3fe608060405234801561001057600080fd5b50600436106100365760003560e01c806352e66db81461003b5780636d4ce63c14610057575b600080fd5b610055600480360361005091908101906103b9565b610075565b005b61005f61008f565b60405161006c91906104bc565b60405180910390f35b806000908051906020019061008b929190610178565b5050565b60606000805480602002602001604051908101604052809291908181526020016000905b8282101561016f578382906000526020600020018054600181600116156101000203166002900480601f01602080910402602001604051908101604052809291908181526020018280546001816001161561010002031660029004801561015b5780601f106101305761010080835404028352916020019161015b565b820191906000526020600020905b81548152906001019060200180831161013e57829003601f168201915b5050505050815260200190600101906100b3565b50505050905090565b8280548282559060005260206000209081019282156101c7579160200282015b828111156101c65782518290805190602001906101b69291906101d8565b5091602001919060010190610198565b5b5090506101d49190610258565b5090565b828054600181600116156101000203166002900490600052602060002090601f016020900481019282601f1061021957805160ff1916838001178555610247565b82800160010185558215610247579182015b8281111561024657825182559160200191906001019061022b565b5b5090506102549190610284565b5090565b61028191905b8082111561027d576000818161027491906102a9565b5060010161025e565b5090565b90565b6102a691905b808211156102a257600081600090555060010161028a565b5090565b90565b50805460018160011615610100020316600290046000825580601f106102cf57506102ee565b601f0160209004906000526020600020908101906102ed9190610284565b5b50565b600082601f83011261030257600080fd5b81356103156103108261050b565b6104de565b9150818183526020840193506020810190508360005b8381101561035b57813586016103418882610365565b84526020840193506020830192505060018101905061032b565b5050505092915050565b600082601f83011261037657600080fd5b813561038961038482610533565b6104de565b915080825260208301602083018583830111156103a557600080fd5b6103b08382846105b4565b50505092915050565b6000602082840312156103cb57600080fd5b600082013567ffffffffffffffff8111156103e557600080fd5b6103f1848285016102f1565b91505092915050565b60006104068383610483565b905092915050565b60006104198261056f565b6104238185610592565b9350836020820285016104358561055f565b8060005b85811015610471578484038952815161045285826103fa565b945061045d83610585565b925060208a01995050600181019050610439565b50829750879550505050505092915050565b600061048e8261057a565b61049881856105a3565b93506104a88185602086016105c3565b6104b1816105f6565b840191505092915050565b600060208201905081810360008301526104d6818461040e565b905092915050565b6000604051905081810181811067ffffffffffffffff8211171561050157600080fd5b8060405250919050565b600067ffffffffffffffff82111561052257600080fd5b602082029050602081019050919050565b600067ffffffffffffffff82111561054a57600080fd5b601f19601f8301169050602081019050919050565b6000819050602082019050919050565b600081519050919050565b600081519050919050565b6000602082019050919050565b600082825260208201905092915050565b600082825260208201905092915050565b82818337600083830152505050565b60005b838110156105e15780820151818401526020810190506105c6565b838111156105f0576000848401525b50505050565b6000601f19601f830116905091905056fea365627a7a72315820c22d3f83ac6aea40530d0082fc12890f5fcbb35e12b596645034a827439cf3556c6578706572696d656e74616cf564736f6c63430005100040",
  "source": "pragma solidity >=0.4.21 <0.6.0;\npragma experimental ABIEncoderV2;\n\ncontract Accident {\n  string[] ipfsHashes;\n\n  function set(string[] memory hash) public {\n    ipfsHashes = hash;\n\n  }\n\n  function get() public view returns (string[] memory) {\n    return ipfsHashes;\n  }\n}\n",
  "sourcePath": "/Users/maralmousawi/Downloads/accident_report_dapp/src/contracts/Accident.sol",
  "compiler": {
    "name": "solc",
    "version": "0.5.16+commit.9c3226ce.Emscripten.clang"
  },
  "schemaVersion": "3.4.3",
  "updatedAt": "2021-12-09T12:15:54.420Z",
  "networkType": "ethereum",
  "devdoc": {
    "methods": {}
  },
  "userdoc": {
    "methods": {}
  }
}